{
  "contractName": "Voting",
  "abi": [
    {
      "anonymous": false,
      "inputs": [
        {
          "indexed": true,
          "internalType": "string",
          "name": "_choice",
          "type": "string"
        }
      ],
      "name": "VoteCasted",
      "type": "event"
    },
    {
      "constant": true,
      "inputs": [],
      "name": "democrat",
      "outputs": [
        {
          "internalType": "uint256",
          "name": "",
          "type": "uint256"
        }
      ],
      "payable": false,
      "stateMutability": "view",
      "type": "function"
    },
    {
      "constant": true,
      "inputs": [],
      "name": "name",
      "outputs": [
        {
          "internalType": "string",
          "name": "",
          "type": "string"
        }
      ],
      "payable": false,
      "stateMutability": "view",
      "type": "function"
    },
    {
      "constant": true,
      "inputs": [],
      "name": "numberOfVotes",
      "outputs": [
        {
          "internalType": "uint256",
          "name": "",
          "type": "uint256"
        }
      ],
      "payable": false,
      "stateMutability": "view",
      "type": "function"
    },
    {
      "constant": true,
      "inputs": [],
      "name": "republican",
      "outputs": [
        {
          "internalType": "uint256",
          "name": "",
          "type": "uint256"
        }
      ],
      "payable": false,
      "stateMutability": "view",
      "type": "function"
    },
    {
      "constant": false,
      "inputs": [
        {
          "internalType": "string",
          "name": "_text",
          "type": "string"
        },
        {
          "internalType": "uint256",
          "name": "id",
          "type": "uint256"
        }
      ],
      "name": "castVote",
      "outputs": [],
      "payable": false,
      "stateMutability": "nonpayable",
      "type": "function"
    }
  ],
  "bytecode": "0x60806040526040518060400160405280600b81526020017f4461707020566f74696e670000000000000000000000000000000000000000008152506000908051906020019061004f929190610062565b5034801561005c57600080fd5b50610107565b828054600181600116156101000203166002900490600052602060002090601f016020900481019282601f106100a357805160ff19168380011785556100d1565b828001600101855582156100d1579182015b828111156100d05782518255916020019190600101906100b5565b5b5090506100de91906100e2565b5090565b61010491905b808211156101005760008160009055506001016100e8565b5090565b90565b6108a8806101166000396000f3fe608060405234801561001057600080fd5b50600436106100575760003560e01c806306fdde031461005c5780630e7d490d146100df578063803c81c8146100fd578063cc3a779f1461011b578063e3b9e2fa14610139575b600080fd5b6100646101fe565b6040518080602001828103825283818151815260200191508051906020019080838360005b838110156100a4578082015181840152602081019050610089565b50505050905090810190601f1680156100d15780820380516001836020036101000a031916815260200191505b509250505060405180910390f35b6100e761029c565b6040518082815260200191505060405180910390f35b6101056102a2565b6040518082815260200191505060405180910390f35b6101236102a8565b6040518082815260200191505060405180910390f35b6101fc6004803603604081101561014f57600080fd5b810190808035906020019064010000000081111561016c57600080fd5b82018360208201111561017e57600080fd5b803590602001918460018302840111640100000000831117156101a057600080fd5b91908080601f016020809104026020016040519081016040528093929190818152602001838380828437600081840152601f19601f820116905080830192505050505050509192919290803590602001909291905050506102ae565b005b60008054600181600116156101000203166002900480601f0160208091040260200160405190810160405280929190818152602001828054600181600116156101000203166002900480156102945780601f1061026957610100808354040283529160200191610294565b820191906000526020600020905b81548152906001019060200180831161027757829003601f168201915b505050505081565b60085481565b60015481565b60025481565b3360001515600960008373ffffffffffffffffffffffffffffffffffffffff1673ffffffffffffffffffffffffffffffffffffffff16815260200190815260200160002060030160009054906101000a900460ff16151514610378576040517f08c379a00000000000000000000000000000000000000000000000000000000081526004018080602001828103825260148152602001807f616c726561647920766f746564206265666f726500000000000000000000000081525060200191505060405180910390fd5b610380610700565b6040518060a001604052808481526020013373ffffffffffffffffffffffffffffffffffffffff1681526020018581526020016001151581526020014281525090508060036000820151816000015560208201518160010160006101000a81548173ffffffffffffffffffffffffffffffffffffffff021916908373ffffffffffffffffffffffffffffffffffffffff1602179055506040820151816002019080519060200190610432929190610747565b5060608201518160030160006101000a81548160ff021916908315150217905550608082015181600401559050506003600960003373ffffffffffffffffffffffffffffffffffffffff1673ffffffffffffffffffffffffffffffffffffffff168152602001908152602001600020600082015481600001556001820160009054906101000a900473ffffffffffffffffffffffffffffffffffffffff168160010160006101000a81548173ffffffffffffffffffffffffffffffffffffffff021916908373ffffffffffffffffffffffffffffffffffffffff160217905550600282018160020190805460018160011615610100020316600290046105399291906107c7565b506003820160009054906101000a900460ff168160030160006101000a81548160ff0219169083151502179055506004820154816004015590505060405160200180807f72657075626c6963616e00000000000000000000000000000000000000000000815250600a01905060405160208183030381529060405280519060200120846040516020018082805190602001908083835b602083106105f257805182526020820191506020810190506020830392506105cf565b6001836020036101000a038019825116818451168082178552505050505050905001915050604051602081830303815290604052805190602001201461064857600160008154809291906001019190505561065a565b60026000815480929190600101919050555b50600860008154809291906001019190505550836040518082805190602001908083835b602083106106a1578051825260208201915060208101905060208303925061067e565b6001836020036101000a03801982511681845116808217855250505050505090500191505060405180910390207fcd63cc839e5f0f85c27f29e02b4e7d4e695820f9600a1cd819c990d39762e85260405160405180910390a250505050565b6040518060a0016040528060008152602001600073ffffffffffffffffffffffffffffffffffffffff16815260200160608152602001600015158152602001600081525090565b828054600181600116156101000203166002900490600052602060002090601f016020900481019282601f1061078857805160ff19168380011785556107b6565b828001600101855582156107b6579182015b828111156107b557825182559160200191906001019061079a565b5b5090506107c3919061084e565b5090565b828054600181600116156101000203166002900490600052602060002090601f016020900481019282601f10610800578054855561083d565b8280016001018555821561083d57600052602060002091601f016020900482015b8281111561083c578254825591600101919060010190610821565b5b50905061084a919061084e565b5090565b61087091905b8082111561086c576000816000905550600101610854565b5090565b9056fea265627a7a7231582049d192c9301534fd2f1953e133623f6c8ec19c28c1878f519280c14d7d90958564736f6c63430005100032",
  "source": "// SPDX-License-Identifier: MIT\r\npragma solidity >=0.4.21 <0.8.12;\r\n\r\n\r\ncontract Voting {\r\n\r\n//token name\r\n string public name = \"Dapp Voting\";\r\n\r\n\r\n// voting party options\r\nuint public democrat;\r\n\r\nuint public republican;\r\n\r\n// each vote\r\n struct Vote {\r\n     uint256 id;\r\n     address  Address;\r\n     string   text;\r\n     bool    voted;\r\n     uint256   timestamp;\r\n }\r\n  \r\n  Vote voter;\r\n\r\n// events when votes are casted\r\nevent VoteCasted(string indexed _choice);\r\n\r\n\r\n//total number of votes\r\n uint public numberOfVotes;\r\n\r\n//eligible voter\r\n mapping (address => Vote) person;\r\n\r\n// prevent duplicate votes\r\n modifier duplicateVotes (address Address) {\r\n  require(person[Address].voted == false , \"already voted before\");\r\n  _;\r\n }\r\n\r\n\r\n// Cast a vote\r\n// Validate voter to ensure that voter has not voted before\r\n// Assign votes to voted candidates to be able to pick a winner from the client\r\n// calculate the total number of votes\r\n\r\nfunction castVote(string memory _text, uint256 id) public duplicateVotes(msg.sender) {\r\n\r\n    Vote memory _newVote = Vote(id, msg.sender, _text, true, block.timestamp);\r\n    \r\n    voter = _newVote;\r\n\r\n    person[msg.sender] = voter;\r\n\r\n    keccak256(abi.encodePacked(_text)) == keccak256(abi.encodePacked(\"republican\"))\r\n     ? republican++ : democrat++;\r\n\r\n    numberOfVotes++;\r\n\r\n    emit VoteCasted(_text);\r\n\r\n    \r\n    \r\n    \r\n}\r\n\r\n\r\n\r\n}",
  "sourcePath": "C:\\Users\\nduro\\Documents\\blockkchain projects\\votingApp\\contracts\\Voting.sol",
  "compiler": {
    "name": "solc",
    "version": "0.5.16+commit.9c3226ce.Emscripten.clang"
  },
  "schemaVersion": "3.4.5",
  "updatedAt": "2022-02-24T17:15:13.557Z",
  "networkType": "ethereum",
  "devdoc": {
    "methods": {}
  },
  "userdoc": {
    "methods": {}
  }
}